{
  "contractName": "ContractSystem",
  "abi": [
    {
      "constant": true,
      "inputs": [
        {
          "name": "",
          "type": "address"
        }
      ],
      "name": "balances",
      "outputs": [
        {
          "name": "",
          "type": "uint256"
        }
      ],
      "payable": false,
      "stateMutability": "view",
      "type": "function",
      "signature": "0x27e235e3"
    },
    {
      "constant": true,
      "inputs": [],
      "name": "constractIDCount",
      "outputs": [
        {
          "name": "",
          "type": "uint256"
        }
      ],
      "payable": false,
      "stateMutability": "view",
      "type": "function",
      "signature": "0x3a159930"
    },
    {
      "constant": true,
      "inputs": [
        {
          "name": "",
          "type": "address"
        }
      ],
      "name": "users",
      "outputs": [
        {
          "name": "name",
          "type": "string"
        },
        {
          "name": "wallet_address",
          "type": "address"
        }
      ],
      "payable": false,
      "stateMutability": "view",
      "type": "function",
      "signature": "0xa87430ba"
    },
    {
      "anonymous": false,
      "inputs": [
        {
          "indexed": true,
          "name": "value1",
          "type": "string"
        }
      ],
      "name": "logs",
      "type": "event",
      "signature": "0xca85af2a38e73f0d45e6f01325ed3bba20ec72356fe173d870fd10101ab7fdc0"
    },
    {
      "anonymous": false,
      "inputs": [
        {
          "indexed": true,
          "name": "value1",
          "type": "address"
        }
      ],
      "name": "loga",
      "type": "event",
      "signature": "0x7e85af00f93b84fdce3db2685a99baf487b2ca06d4a407c0ab651217b2244874"
    },
    {
      "anonymous": false,
      "inputs": [
        {
          "indexed": true,
          "name": "value1",
          "type": "uint256"
        }
      ],
      "name": "logi",
      "type": "event",
      "signature": "0xb3220490ec0b184f378bf0e1fd2e2e595ad2ba6acd981a4357727ff0c4faa27c"
    },
    {
      "constant": false,
      "inputs": [
        {
          "name": "_terms",
          "type": "string"
        },
        {
          "name": "_amount",
          "type": "uint256"
        },
        {
          "name": "_toPartyAdress",
          "type": "address"
        }
      ],
      "name": "createUserContract",
      "outputs": [],
      "payable": false,
      "stateMutability": "nonpayable",
      "type": "function",
      "signature": "0x5789c650"
    },
    {
      "constant": false,
      "inputs": [
        {
          "name": "_name",
          "type": "string"
        }
      ],
      "name": "addUser",
      "outputs": [],
      "payable": false,
      "stateMutability": "nonpayable",
      "type": "function",
      "signature": "0x18b8275a"
    },
    {
      "constant": false,
      "inputs": [],
      "name": "getUserContracts",
      "outputs": [
        {
          "name": "",
          "type": "uint256[]"
        }
      ],
      "payable": false,
      "stateMutability": "nonpayable",
      "type": "function",
      "signature": "0xdfc41f44"
    },
    {
      "constant": false,
      "inputs": [
        {
          "name": "_contractID",
          "type": "uint256"
        }
      ],
      "name": "verifyUserContract",
      "outputs": [],
      "payable": false,
      "stateMutability": "nonpayable",
      "type": "function",
      "signature": "0x340e2192"
    },
    {
      "constant": false,
      "inputs": [
        {
          "name": "_contractID",
          "type": "uint256"
        }
      ],
      "name": "JobCompleted",
      "outputs": [],
      "payable": false,
      "stateMutability": "nonpayable",
      "type": "function",
      "signature": "0x02244c85"
    },
    {
      "constant": false,
      "inputs": [
        {
          "name": "_contractID",
          "type": "uint256"
        }
      ],
      "name": "getContractTerms",
      "outputs": [
        {
          "name": "",
          "type": "string"
        }
      ],
      "payable": false,
      "stateMutability": "nonpayable",
      "type": "function",
      "signature": "0x8247a190"
    },
    {
      "constant": false,
      "inputs": [
        {
          "name": "_contractID",
          "type": "uint256"
        }
      ],
      "name": "getContractAmount",
      "outputs": [
        {
          "name": "",
          "type": "uint256"
        }
      ],
      "payable": false,
      "stateMutability": "nonpayable",
      "type": "function",
      "signature": "0x6041c702"
    },
    {
      "constant": false,
      "inputs": [
        {
          "name": "_contractID",
          "type": "uint256"
        }
      ],
      "name": "getContractTimeStamp",
      "outputs": [
        {
          "name": "",
          "type": "uint256"
        }
      ],
      "payable": false,
      "stateMutability": "nonpayable",
      "type": "function",
      "signature": "0xdf995f90"
    },
    {
      "constant": false,
      "inputs": [
        {
          "name": "_contractID",
          "type": "uint256"
        }
      ],
      "name": "getContractToPartyName",
      "outputs": [
        {
          "name": "",
          "type": "string"
        }
      ],
      "payable": false,
      "stateMutability": "nonpayable",
      "type": "function",
      "signature": "0x165d5abc"
    },
    {
      "constant": false,
      "inputs": [
        {
          "name": "_contractID",
          "type": "uint256"
        }
      ],
      "name": "getContractFromPartyName",
      "outputs": [
        {
          "name": "",
          "type": "string"
        }
      ],
      "payable": false,
      "stateMutability": "nonpayable",
      "type": "function",
      "signature": "0xd3623719"
    },
    {
      "constant": false,
      "inputs": [
        {
          "name": "_contractID",
          "type": "uint256"
        }
      ],
      "name": "getContractStatus",
      "outputs": [
        {
          "name": "",
          "type": "uint256"
        }
      ],
      "payable": false,
      "stateMutability": "nonpayable",
      "type": "function",
      "signature": "0x17b18458"
    },
    {
      "constant": false,
      "inputs": [
        {
          "name": "_contractID",
          "type": "uint256"
        }
      ],
      "name": "getClient",
      "outputs": [
        {
          "name": "",
          "type": "string"
        }
      ],
      "payable": false,
      "stateMutability": "nonpayable",
      "type": "function",
      "signature": "0xd0068f80"
    }
  ],
  "bytecode": "0x60806040526000805534801561001457600080fd5b50611a0c806100246000396000f3006080604052600436106100db576000357c0100000000000000000000000000000000000000000000000000000000900463ffffffff16806302244c85146100e0578063165d5abc1461010d57806317b18458146101b357806318b8275a146101f457806327e235e31461025d578063340e2192146102b45780633a159930146102e15780635789c6501461030c5780636041c7021461039f5780638247a190146103e0578063a87430ba14610486578063d0068f8014610575578063d36237191461061b578063df995f90146106c1578063dfc41f4414610702575b600080fd5b3480156100ec57600080fd5b5061010b6004803603810190808035906020019092919050505061076e565b005b34801561011957600080fd5b5061013860048036038101908080359060200190929190505050610906565b6040518080602001828103825283818151815260200191508051906020019080838360005b8381101561017857808201518184015260208101905061015d565b50505050905090810190601f1680156101a55780820380516001836020036101000a031916815260200191505b509250505060405180910390f35b3480156101bf57600080fd5b506101de600480360381019080803590602001909291905050506109c1565b6040518082815260200191505060405180910390f35b34801561020057600080fd5b5061025b600480360381019080803590602001908201803590602001908080601f0160208091040260200160405190810160405280939291908181526020018383808284378201915050505050509192919290505050610a6c565b005b34801561026957600080fd5b5061029e600480360381019080803573ffffffffffffffffffffffffffffffffffffffff169060200190929190505050610b40565b6040518082815260200191505060405180910390f35b3480156102c057600080fd5b506102df60048036038101908080359060200190929190505050610b58565b005b3480156102ed57600080fd5b506102f6610cc2565b6040518082815260200191505060405180910390f35b34801561031857600080fd5b5061039d600480360381019080803590602001908201803590602001908080601f016020809104026020016040519081016040528093929190818152602001838380828437820191505050505050919291929080359060200190929190803573ffffffffffffffffffffffffffffffffffffffff169060200190929190505050610cc8565b005b3480156103ab57600080fd5b506103ca6004803603810190808035906020019092919050505061118a565b6040518082815260200191505060405180910390f35b3480156103ec57600080fd5b5061040b600480360381019080803590602001909291905050506111aa565b6040518080602001828103825283818151815260200191508051906020019080838360005b8381101561044b578082015181840152602081019050610430565b50505050905090810190601f1680156104785780820380516001836020036101000a031916815260200191505b509250505060405180910390f35b34801561049257600080fd5b506104c7600480360381019080803573ffffffffffffffffffffffffffffffffffffffff169060200190929190505050611262565b60405180806020018373ffffffffffffffffffffffffffffffffffffffff1673ffffffffffffffffffffffffffffffffffffffff168152602001828103825284818151815260200191508051906020019080838360005b8381101561053957808201518184015260208101905061051e565b50505050905090810190601f1680156105665780820380516001836020036101000a031916815260200191505b50935050505060405180910390f35b34801561058157600080fd5b506105a06004803603810190808035906020019092919050505061133e565b6040518080602001828103825283818151815260200191508051906020019080838360005b838110156105e05780820151818401526020810190506105c5565b50505050905090810190601f16801561060d5780820380516001836020036101000a031916815260200191505b509250505060405180910390f35b34801561062757600080fd5b5061064660048036038101908080359060200190929190505050611575565b6040518080602001828103825283818151815260200191508051906020019080838360005b8381101561068657808201518184015260208101905061066b565b50505050905090810190601f1680156106b35780820380516001836020036101000a031916815260200191505b509250505060405180910390f35b3480156106cd57600080fd5b506106ec60048036038101908080359060200190929190505050611630565b6040518082815260200191505060405180910390f35b34801561070e57600080fd5b50610717611650565b6040518080602001828103825283818151815260200191508051906020019060200280838360005b8381101561075a57808201518184015260208101905061073f565b505050509050019250505060405180910390f35b60006001600083815260200190815260200160002090508060040160010160009054906101000a900473ffffffffffffffffffffffffffffffffffffffff1673ffffffffffffffffffffffffffffffffffffffff163373ffffffffffffffffffffffffffffffffffffffff161415156107e657600080fd5b8060080160029054906101000a900460ff16600381111561080357fe5b60038081111561080f57fe5b14151561081b57600080fd5b60008160080160026101000a81548160ff0219169083600381111561083c57fe5b0217905550600360003373ffffffffffffffffffffffffffffffffffffffff1673ffffffffffffffffffffffffffffffffffffffff168152602001908152602001600020600081548092919060010191905055508060060160010160009054906101000a900473ffffffffffffffffffffffffffffffffffffffff1673ffffffffffffffffffffffffffffffffffffffff166108fc82600201549081150290604051600060405180830381858888f19350505050158015610901573d6000803e3d6000fd5b505050565b6060600160008381526020019081526020016000206006016000018054600181600116156101000203166002900480601f0160208091040260200160405190810160405280929190818152602001828054600181600116156101000203166002900480156109b55780601f1061098a576101008083540402835291602001916109b5565b820191906000526020600020905b81548152906001019060200180831161099857829003601f168201915b50505050509050919050565b6000806001600084815260200190815260200160002060080160029054906101000a900460ff1690506003808111156109f657fe5b816003811115610a0257fe5b1415610a115760029150610a66565b60006003811115610a1e57fe5b816003811115610a2a57fe5b1415610a395760039150610a66565b60016003811115610a4657fe5b816003811115610a5257fe5b1415610a615760049150610a66565b600191505b50919050565b60408051908101604052808281526020013373ffffffffffffffffffffffffffffffffffffffff16815250600260003373ffffffffffffffffffffffffffffffffffffffff1673ffffffffffffffffffffffffffffffffffffffff1681526020019081526020016000206000820151816000019080519060200190610af292919061190b565b5060208201518160010160006101000a81548173ffffffffffffffffffffffffffffffffffffffff021916908373ffffffffffffffffffffffffffffffffffffffff16021790555090505050565b60036020528060005260406000206000915090505481565b60006001600083815260200190815260200160002090508060060160010160009054906101000a900473ffffffffffffffffffffffffffffffffffffffff1673ffffffffffffffffffffffffffffffffffffffff163373ffffffffffffffffffffffffffffffffffffffff161415610bec5760018160080160016101000a81548160ff021916908315150217905550610c66565b8060040160010160009054906101000a900473ffffffffffffffffffffffffffffffffffffffff1673ffffffffffffffffffffffffffffffffffffffff163373ffffffffffffffffffffffffffffffffffffffff161415610c655760018160080160006101000a81548160ff0219169083151502179055505b5b8060080160009054906101000a900460ff168015610c9257508060080160019054906101000a900460ff165b15610cbe5760038160080160026101000a81548160ff02191690836003811115610cb857fe5b02179055505b5050565b60005481565b8073ffffffffffffffffffffffffffffffffffffffff163373ffffffffffffffffffffffffffffffffffffffff1614151515610d0357600080fd5b6000808154809291906001019190505550610120604051908101604052806000548152602001848152602001838152602001428152602001600260003373ffffffffffffffffffffffffffffffffffffffff1673ffffffffffffffffffffffffffffffffffffffff168152602001908152602001600020604080519081016040529081600082018054600181600116156101000203166002900480601f016020809104026020016040519081016040528092919081815260200182805460018160011615610100020316600290048015610e1e5780601f10610df357610100808354040283529160200191610e1e565b820191906000526020600020905b815481529060010190602001808311610e0157829003601f168201915b505050505081526020016001820160009054906101000a900473ffffffffffffffffffffffffffffffffffffffff1673ffffffffffffffffffffffffffffffffffffffff1673ffffffffffffffffffffffffffffffffffffffff16815250508152602001600260008473ffffffffffffffffffffffffffffffffffffffff1673ffffffffffffffffffffffffffffffffffffffff168152602001908152602001600020604080519081016040529081600082018054600181600116156101000203166002900480601f016020809104026020016040519081016040528092919081815260200182805460018160011615610100020316600290048015610f655780601f10610f3a57610100808354040283529160200191610f65565b820191906000526020600020905b815481529060010190602001808311610f4857829003601f168201915b505050505081526020016001820160009054906101000a900473ffffffffffffffffffffffffffffffffffffffff1673ffffffffffffffffffffffffffffffffffffffff1673ffffffffffffffffffffffffffffffffffffffff1681525050815260200160001515815260200160001515815260200160026003811115610fe857fe5b815250600160008054815260200190815260200160002060008201518160000155602082015181600101908051906020019061102592919061190b565b506040820151816002015560608201518160030155608082015181600401600082015181600001908051906020019061105f92919061190b565b5060208201518160010160006101000a81548173ffffffffffffffffffffffffffffffffffffffff021916908373ffffffffffffffffffffffffffffffffffffffff160217905550505060a08201518160060160008201518160000190805190602001906110ce92919061190b565b5060208201518160010160006101000a81548173ffffffffffffffffffffffffffffffffffffffff021916908373ffffffffffffffffffffffffffffffffffffffff160217905550505060c08201518160080160006101000a81548160ff02191690831515021790555060e08201518160080160016101000a81548160ff0219169083151502179055506101008201518160080160026101000a81548160ff0219169083600381111561117d57fe5b0217905550905050505050565b600060016000838152602001908152602001600020600201549050919050565b6060600160008381526020019081526020016000206001018054600181600116156101000203166002900480601f0160208091040260200160405190810160405280929190818152602001828054600181600116156101000203166002900480156112565780601f1061122b57610100808354040283529160200191611256565b820191906000526020600020905b81548152906001019060200180831161123957829003601f168201915b50505050509050919050565b6002602052806000526040600020600091509050806000018054600181600116156101000203166002900480601f01602080910402602001604051908101604052809291908181526020018280546001816001161561010002031660029004801561130e5780601f106112e35761010080835404028352916020019161130e565b820191906000526020600020905b8154815290600101906020018083116112f157829003601f168201915b5050505050908060010160009054906101000a900473ffffffffffffffffffffffffffffffffffffffff16905082565b606060006001600084815260200190815260200160002090508060060160010160009054906101000a900473ffffffffffffffffffffffffffffffffffffffff1673ffffffffffffffffffffffffffffffffffffffff163373ffffffffffffffffffffffffffffffffffffffff16141561145957806004016000018054600181600116156101000203166002900480601f01602080910402602001604051908101604052809291908181526020018280546001816001161561010002031660029004801561144d5780601f106114225761010080835404028352916020019161144d565b820191906000526020600020905b81548152906001019060200180831161143057829003601f168201915b5050505050915061156f565b8060040160010160009054906101000a900473ffffffffffffffffffffffffffffffffffffffff1673ffffffffffffffffffffffffffffffffffffffff163373ffffffffffffffffffffffffffffffffffffffff16141561155b57806006016000018054600181600116156101000203166002900480601f01602080910402602001604051908101604052809291908181526020018280546001816001161561010002031660029004801561154f5780601f106115245761010080835404028352916020019161154f565b820191906000526020600020905b81548152906001019060200180831161153257829003601f168201915b5050505050915061156f565b602060405190810160405280600081525091505b50919050565b6060600160008381526020019081526020016000206004016000018054600181600116156101000203166002900480601f0160208091040260200160405190810160405280929190818152602001828054600181600116156101000203166002900480156116245780601f106115f957610100808354040283529160200191611624565b820191906000526020600020905b81548152906001019060200180831161160757829003601f168201915b50505050509050919050565b600060016000838152602001908152602001600020600301549050919050565b606061165a61198b565b6060600080600260003373ffffffffffffffffffffffffffffffffffffffff1673ffffffffffffffffffffffffffffffffffffffff168152602001908152602001600020604080519081016040529081600082018054600181600116156101000203166002900480601f0160208091040260200160405190810160405280929190818152602001828054600181600116156101000203166002900480156117425780601f1061171757610100808354040283529160200191611742565b820191906000526020600020905b81548152906001019060200180831161172557829003601f168201915b505050505081526020016001820160009054906101000a900473ffffffffffffffffffffffffffffffffffffffff1673ffffffffffffffffffffffffffffffffffffffff1673ffffffffffffffffffffffffffffffffffffffff168152505093506000546040519080825280602002602001820160405280156117d45781602001602082028038833980820191505090505b50925060009150600090505b60005481101561190157836020015173ffffffffffffffffffffffffffffffffffffffff166001600083815260200190815260200160002060040160010160009054906101000a900473ffffffffffffffffffffffffffffffffffffffff1673ffffffffffffffffffffffffffffffffffffffff1614806118c95750836020015173ffffffffffffffffffffffffffffffffffffffff166001600083815260200190815260200160002060060160010160009054906101000a900473ffffffffffffffffffffffffffffffffffffffff1673ffffffffffffffffffffffffffffffffffffffff16145b156118f4578083838151811015156118dd57fe5b906020019060200201818152505081806001019250505b80806001019150506117e0565b8294505050505090565b828054600181600116156101000203166002900490600052602060002090601f016020900481019282601f1061194c57805160ff191683800117855561197a565b8280016001018555821561197a579182015b8281111561197957825182559160200191906001019061195e565b5b50905061198791906119bb565b5090565b604080519081016040528060608152602001600073ffffffffffffffffffffffffffffffffffffffff1681525090565b6119dd91905b808211156119d95760008160009055506001016119c1565b5090565b905600a165627a7a723058206aab7306c6f1dfbac8c8deaf9909f195cbda17ba9fa8b5a47bf53e162b1dd8690029",
  "source": "pragma solidity ^0.4.2;\r\ncontract ContractSystem {\r\n    \r\n    \r\n    event logs(string indexed value1);\r\n    event loga(address indexed value1);\r\n    event logi(uint indexed value1);\r\n    \r\n    \r\n    \r\n    \r\n    \r\n    enum State{Completed,Disputed,Ongoing,Verified}\r\n    \r\n    uint256 public constractIDCount = 0;\r\n\r\n    struct User {\r\n        string name;\r\n        address  wallet_address;\r\n    }\r\n\r\n    struct UserContract {\r\n        uint256 id;\r\n        string terms;\r\n        uint amount;\r\n        uint256 createdOnTimestamp;\r\n        User fromParty;\r\n        User toParty;\r\n        bool fromPartyVerified;\r\n        bool toPartyVerified;\r\n        State status;\r\n    }\r\n\r\n    \r\n\r\n    \r\n    mapping(uint => UserContract)  allContracts;\r\n    \r\n    mapping(address => User) public users;\r\n    \r\n    mapping(address => uint256) public balances;\r\n    \r\n    \r\n\r\n    \r\n\r\n    //given user wallet fetch UserContracts\r\n    \r\n\r\n    \r\n    \r\n    \r\n    function createUserContract(string memory _terms, uint _amount,address   _toPartyAdress) public  {\r\n        \r\n        require(msg.sender != _toPartyAdress);\r\n        \r\n        constractIDCount++;\r\n        allContracts[constractIDCount] =  UserContract(constractIDCount,\r\n                                                     _terms,\r\n                                                     _amount,\r\n                                                     block.timestamp,\r\n                                                     users[msg.sender],\r\n                                                     users[_toPartyAdress],\r\n                                                     false,\r\n                                                     false,\r\n                                                     State.Ongoing);\r\n    }\r\n    \r\n    function addUser(string memory _name) public  {\r\n        users[msg.sender] = User(_name,msg.sender);\r\n    }\r\n   \r\n    function getUserContracts() public  returns(uint[] memory) {\r\n        User memory user = users[msg.sender];\r\n        uint[] memory thisUsersContracts = new uint[](constractIDCount);\r\n        uint k = 0;\r\n        for (uint i=0; i<constractIDCount; i++) {\r\n            if(allContracts[i].fromParty.wallet_address == user.wallet_address || \r\n                allContracts[i].toParty.wallet_address == user.wallet_address) {\r\n                thisUsersContracts[k]  = i;\r\n                k++;\r\n            }\r\n            \r\n        }\r\n        return thisUsersContracts;\r\n    }\r\n    \r\n    \r\n    function verifyUserContract(uint _contractID) public {\r\n        UserContract storage _userContract = allContracts[_contractID];\r\n        if(msg.sender == _userContract.toParty.wallet_address) {\r\n            _userContract.toPartyVerified = true;\r\n        } else if(msg.sender == _userContract.fromParty.wallet_address) {\r\n            _userContract.fromPartyVerified = true;\r\n        }\r\n        \r\n        if(_userContract.fromPartyVerified && _userContract.toPartyVerified) {\r\n            _userContract.status = State.Verified;\r\n        }\r\n        \r\n    }\r\n    \r\n    \r\n    \r\n    \r\n    \r\n    function JobCompleted(uint _contractID) public {\r\n        UserContract storage _userContract = allContracts[_contractID];\r\n        require(msg.sender == _userContract.fromParty.wallet_address);\r\n        require(State.Verified == _userContract.status);\r\n        _userContract.status = State.Completed;\r\n        balances[msg.sender]++;\r\n        _userContract.toParty.wallet_address.transfer(_userContract.amount);\r\n        \r\n    }\r\n    \r\n    \r\n    \r\n    //Temp Contract\r\n    \r\n    //Contracts Done\r\n    \r\n    //Active Disputes\r\n\r\n\r\n    /***************************CONTRACT GETTER***********************/\r\n    \r\n    function getContractTerms(uint _contractID) public returns(string memory){\r\n        return allContracts[_contractID].terms;\r\n    }\r\n    function getContractAmount(uint _contractID) public returns(uint ){\r\n        return allContracts[_contractID].amount;\r\n    }\r\n    function getContractTimeStamp(uint _contractID) public returns(uint ){\r\n        return allContracts[_contractID].createdOnTimestamp;\r\n    }\r\n    function getContractToPartyName(uint _contractID) public returns(string ){\r\n        return allContracts[_contractID].toParty.name;\r\n    }\r\n    function getContractFromPartyName(uint _contractID) public returns(string  ){\r\n        return allContracts[_contractID].fromParty.name;\r\n    }\r\n    function getContractStatus(uint _contractID) public returns(uint){\r\n        State a  = allContracts[_contractID].status;\r\n        if(a == State.Verified) {\r\n            return 2;\r\n        } else if(a == State.Completed) {\r\n            return 3;\r\n        } else if(a == State.Disputed){\r\n            return 4;\r\n        } else return 1;//Ongoing \r\n    }\r\n    function getClient(uint _contractID) public returns(string) {\r\n        \r\n        UserContract usc = allContracts[_contractID]; \r\n        if(msg.sender  == usc.toParty.wallet_address) {\r\n            return usc.fromParty.name;\r\n        } else if(msg.sender  == usc.fromParty.wallet_address) {\r\n            return usc.toParty.name;\r\n        } else return \"\";\r\n    }\r\n}",
  "sourcePath": "C:/Users/Nisha/Documents/SPIT HACKATHON/SPIT_HACKATHON/contracts/ContractSystem.sol",
  "compiler": {
    "name": "solc",
    "version": "0.4.22+commit.4cb486ee.Emscripten.clang"
  },
  "schemaVersion": "3.0.1",
  "updatedAt": "2019-01-05T22:56:17.189Z",
  "devdoc": {
    "methods": {}
  },
  "userdoc": {
    "methods": {
      "getContractTerms(uint256)": {
        "notice": "*************************CONTRACT GETTER**********************"
      }
    }
  }
}