{
  "contractName": "ContractSystem",
  "abi": [
    {
      "constant": true,
      "inputs": [],
      "name": "constractIDCount",
      "outputs": [
        {
          "name": "",
          "type": "uint256"
        }
      ],
      "payable": false,
      "stateMutability": "view",
      "type": "function",
      "signature": "0x3a159930"
    },
    {
      "constant": true,
      "inputs": [
        {
          "name": "",
          "type": "address"
        }
      ],
      "name": "users",
      "outputs": [
        {
          "name": "name",
          "type": "string"
        },
        {
          "name": "wallet_address",
          "type": "address"
        }
      ],
      "payable": false,
      "stateMutability": "view",
      "type": "function",
      "signature": "0xa87430ba"
    },
    {
      "anonymous": false,
      "inputs": [
        {
          "indexed": true,
          "name": "value1",
          "type": "string"
        }
      ],
      "name": "logs",
      "type": "event",
      "signature": "0xca85af2a38e73f0d45e6f01325ed3bba20ec72356fe173d870fd10101ab7fdc0"
    },
    {
      "anonymous": false,
      "inputs": [
        {
          "indexed": true,
          "name": "value1",
          "type": "address"
        }
      ],
      "name": "loga",
      "type": "event",
      "signature": "0x7e85af00f93b84fdce3db2685a99baf487b2ca06d4a407c0ab651217b2244874"
    },
    {
      "anonymous": false,
      "inputs": [
        {
          "indexed": true,
          "name": "value1",
          "type": "uint256"
        }
      ],
      "name": "logi",
      "type": "event",
      "signature": "0xb3220490ec0b184f378bf0e1fd2e2e595ad2ba6acd981a4357727ff0c4faa27c"
    },
    {
      "constant": false,
      "inputs": [
        {
          "name": "_terms",
          "type": "string"
        },
        {
          "name": "_amount",
          "type": "uint256"
        },
        {
          "name": "_toPartyAdress",
          "type": "address"
        }
      ],
      "name": "createUserContract",
      "outputs": [],
      "payable": true,
      "stateMutability": "payable",
      "type": "function",
      "signature": "0x5789c650"
    },
    {
      "constant": false,
      "inputs": [
        {
          "name": "_name",
          "type": "string"
        }
      ],
      "name": "addUser",
      "outputs": [],
      "payable": false,
      "stateMutability": "nonpayable",
      "type": "function",
      "signature": "0x18b8275a"
    },
    {
      "constant": true,
      "inputs": [],
      "name": "getUserContracts",
      "outputs": [
        {
          "name": "",
          "type": "uint256[]"
        }
      ],
      "payable": false,
      "stateMutability": "view",
      "type": "function",
      "signature": "0xdfc41f44"
    },
    {
      "constant": false,
      "inputs": [
        {
          "name": "_contractID",
          "type": "uint256"
        }
      ],
      "name": "verifyUserContract",
      "outputs": [],
      "payable": false,
      "stateMutability": "nonpayable",
      "type": "function",
      "signature": "0x340e2192"
    },
    {
      "constant": false,
      "inputs": [
        {
          "name": "_contractID",
          "type": "uint256"
        }
      ],
      "name": "JobCompleted",
      "outputs": [],
      "payable": false,
      "stateMutability": "nonpayable",
      "type": "function",
      "signature": "0x02244c85"
    },
    {
      "constant": false,
      "inputs": [
        {
          "name": "_contractID",
          "type": "uint256"
        }
      ],
      "name": "getContractTerms",
      "outputs": [
        {
          "name": "",
          "type": "string"
        }
      ],
      "payable": false,
      "stateMutability": "nonpayable",
      "type": "function",
      "signature": "0x8247a190"
    },
    {
      "constant": false,
      "inputs": [
        {
          "name": "_contractID",
          "type": "uint256"
        }
      ],
      "name": "getContractAmount",
      "outputs": [
        {
          "name": "",
          "type": "uint256"
        }
      ],
      "payable": false,
      "stateMutability": "nonpayable",
      "type": "function",
      "signature": "0x6041c702"
    },
    {
      "constant": false,
      "inputs": [
        {
          "name": "_contractID",
          "type": "uint256"
        }
      ],
      "name": "getContractTimeStamp",
      "outputs": [
        {
          "name": "",
          "type": "uint256"
        }
      ],
      "payable": false,
      "stateMutability": "nonpayable",
      "type": "function",
      "signature": "0xdf995f90"
    },
    {
      "constant": false,
      "inputs": [
        {
          "name": "_contractID",
          "type": "uint256"
        }
      ],
      "name": "getContractToPartyName",
      "outputs": [
        {
          "name": "",
          "type": "string"
        }
      ],
      "payable": false,
      "stateMutability": "nonpayable",
      "type": "function",
      "signature": "0x165d5abc"
    },
    {
      "constant": false,
      "inputs": [
        {
          "name": "_contractID",
          "type": "uint256"
        }
      ],
      "name": "getContractFromPartyName",
      "outputs": [
        {
          "name": "",
          "type": "string"
        }
      ],
      "payable": false,
      "stateMutability": "nonpayable",
      "type": "function",
      "signature": "0xd3623719"
    },
    {
      "constant": false,
      "inputs": [
        {
          "name": "_contractID",
          "type": "uint256"
        }
      ],
      "name": "getContractStatus",
      "outputs": [
        {
          "name": "",
          "type": "uint256"
        }
      ],
      "payable": false,
      "stateMutability": "nonpayable",
      "type": "function",
      "signature": "0x17b18458"
    },
    {
      "constant": false,
      "inputs": [
        {
          "name": "_contractID",
          "type": "uint256"
        }
      ],
      "name": "getContractFromPartyVerified",
      "outputs": [
        {
          "name": "",
          "type": "bool"
        }
      ],
      "payable": false,
      "stateMutability": "nonpayable",
      "type": "function",
      "signature": "0xe42f9827"
    },
    {
      "constant": false,
      "inputs": [
        {
          "name": "_contractID",
          "type": "uint256"
        }
      ],
      "name": "getContractToPartyVerified",
      "outputs": [
        {
          "name": "",
          "type": "bool"
        }
      ],
      "payable": false,
      "stateMutability": "nonpayable",
      "type": "function",
      "signature": "0x396811d4"
    },
    {
      "constant": false,
      "inputs": [
        {
          "name": "_contractID",
          "type": "uint256"
        }
      ],
      "name": "getClient",
      "outputs": [
        {
          "name": "",
          "type": "string"
        }
      ],
      "payable": false,
      "stateMutability": "nonpayable",
      "type": "function",
      "signature": "0xd0068f80"
    }
  ],
  "bytecode": "0x6080604052600060035534801561001557600080fd5b50611a77806100256000396000f3006080604052600436106100e6576000357c0100000000000000000000000000000000000000000000000000000000900463ffffffff16806302244c85146100eb578063165d5abc1461011857806317b18458146101be57806318b8275a146101ff578063340e219214610268578063396811d4146102955780633a159930146102da5780635789c650146103055780636041c7021461038b5780638247a190146103cc578063a87430ba14610472578063d0068f8014610561578063d362371914610607578063df995f90146106ad578063dfc41f44146106ee578063e42f98271461075a575b600080fd5b3480156100f757600080fd5b506101166004803603810190808035906020019092919050505061079f565b005b34801561012457600080fd5b5061014360048036038101908080359060200190929190505050610975565b6040518080602001828103825283818151815260200191508051906020019080838360005b83811015610183578082015181840152602081019050610168565b50505050905090810190601f1680156101b05780820380516001836020036101000a031916815260200191505b509250505060405180910390f35b3480156101ca57600080fd5b506101e960048036038101908080359060200190929190505050610a30565b6040518082815260200191505060405180910390f35b34801561020b57600080fd5b50610266600480360381019080803590602001908201803590602001908080601f0160208091040260200160405190810160405280939291908181526020018383808284378201915050505050509192919290505050610a50565b005b34801561027457600080fd5b5061029360048036038101908080359060200190929190505050610b24565b005b3480156102a157600080fd5b506102c060048036038101908080359060200190929190505050610c72565b604051808215151515815260200191505060405180910390f35b3480156102e657600080fd5b506102ef610c9f565b6040518082815260200191505060405180910390f35b610389600480360381019080803590602001908201803590602001908080601f016020809104026020016040519081016040528093929190818152602001838380828437820191505050505050919291929080359060200190929190803573ffffffffffffffffffffffffffffffffffffffff169060200190929190505050610ca5565b005b34801561039757600080fd5b506103b6600480360381019080803590602001909291905050506111c8565b6040518082815260200191505060405180910390f35b3480156103d857600080fd5b506103f7600480360381019080803590602001909291905050506111e8565b6040518080602001828103825283818151815260200191508051906020019080838360005b8381101561043757808201518184015260208101905061041c565b50505050905090810190601f1680156104645780820380516001836020036101000a031916815260200191505b509250505060405180910390f35b34801561047e57600080fd5b506104b3600480360381019080803573ffffffffffffffffffffffffffffffffffffffff1690602001909291905050506112a0565b60405180806020018373ffffffffffffffffffffffffffffffffffffffff1673ffffffffffffffffffffffffffffffffffffffff168152602001828103825284818151815260200191508051906020019080838360005b8381101561052557808201518184015260208101905061050a565b50505050905090810190601f1680156105525780820380516001836020036101000a031916815260200191505b50935050505060405180910390f35b34801561056d57600080fd5b5061058c6004803603810190808035906020019092919050505061137c565b6040518080602001828103825283818151815260200191508051906020019080838360005b838110156105cc5780820151818401526020810190506105b1565b50505050905090810190601f1680156105f95780820380516001836020036101000a031916815260200191505b509250505060405180910390f35b34801561061357600080fd5b50610632600480360381019080803590602001909291905050506115b3565b6040518080602001828103825283818151815260200191508051906020019080838360005b83811015610672578082015181840152602081019050610657565b50505050905090810190601f16801561069f5780820380516001836020036101000a031916815260200191505b509250505060405180910390f35b3480156106b957600080fd5b506106d86004803603810190808035906020019092919050505061166e565b6040518082815260200191505060405180910390f35b3480156106fa57600080fd5b5061070361168e565b6040518080602001828103825283818151815260200191508051906020019060200280838360005b8381101561074657808201518184015260208101905061072b565b505050509050019250505060405180910390f35b34801561076657600080fd5b5061078560048036038101908080359060200190929190505050611949565b604051808215151515815260200191505060405180910390f35b600060046000838152602001908152602001600020905060028160090154141515610832576040517f08c379a00000000000000000000000000000000000000000000000000000000081526004018080602001828103825260118152602001807f426f7468206e6f7420766572696669656400000000000000000000000000000081525060200191505060405180910390fd5b8060040160010160009054906101000a900473ffffffffffffffffffffffffffffffffffffffff1673ffffffffffffffffffffffffffffffffffffffff163373ffffffffffffffffffffffffffffffffffffffff161415156108fc576040517f08c379a000000000000000000000000000000000000000000000000000000000815260040180806020018281038252600b8152602001807f6e6f74204164647265737300000000000000000000000000000000000000000081525060200191505060405180910390fd5b60038160090181905550600160009054906101000a900473ffffffffffffffffffffffffffffffffffffffff1673ffffffffffffffffffffffffffffffffffffffff166108fc6000549081150290604051600060405180830381858888f19350505050158015610970573d6000803e3d6000fd5b505050565b6060600460008381526020019081526020016000206006016000018054600181600116156101000203166002900480601f016020809104026020016040519081016040528092919081815260200182805460018160011615610100020316600290048015610a245780601f106109f957610100808354040283529160200191610a24565b820191906000526020600020905b815481529060010190602001808311610a0757829003601f168201915b50505050509050919050565b600060046000838152602001908152602001600020600901549050919050565b60408051908101604052808281526020013373ffffffffffffffffffffffffffffffffffffffff16815250600560003373ffffffffffffffffffffffffffffffffffffffff1673ffffffffffffffffffffffffffffffffffffffff1681526020019081526020016000206000820151816000019080519060200190610ad6929190611976565b5060208201518160010160006101000a81548173ffffffffffffffffffffffffffffffffffffffff021916908373ffffffffffffffffffffffffffffffffffffffff16021790555090505050565b60006004600083815260200190815260200160002090508060060160010160009054906101000a900473ffffffffffffffffffffffffffffffffffffffff1673ffffffffffffffffffffffffffffffffffffffff163373ffffffffffffffffffffffffffffffffffffffff161415610bb85760018160080160016101000a81548160ff021916908315150217905550610c32565b8060040160010160009054906101000a900473ffffffffffffffffffffffffffffffffffffffff1673ffffffffffffffffffffffffffffffffffffffff163373ffffffffffffffffffffffffffffffffffffffff161415610c315760018160080160006101000a81548160ff0219169083151502179055505b5b8060080160009054906101000a900460ff168015610c5e57508060080160019054906101000a900460ff165b15610c6e57600281600901819055505b5050565b60006004600083815260200190815260200160002060080160019054906101000a900460ff169050919050565b60035481565b8073ffffffffffffffffffffffffffffffffffffffff163373ffffffffffffffffffffffffffffffffffffffff1614151515610ce057600080fd5b3460008190555033600260006101000a81548173ffffffffffffffffffffffffffffffffffffffff021916908373ffffffffffffffffffffffffffffffffffffffff16021790555080600160006101000a81548173ffffffffffffffffffffffffffffffffffffffff021916908373ffffffffffffffffffffffffffffffffffffffff160217905550600360008154809291906001019190505550610120604051908101604052806003548152602001848152602001838152602001428152602001600560003373ffffffffffffffffffffffffffffffffffffffff1673ffffffffffffffffffffffffffffffffffffffff168152602001908152602001600020604080519081016040529081600082018054600181600116156101000203166002900480601f016020809104026020016040519081016040528092919081815260200182805460018160011615610100020316600290048015610e855780601f10610e5a57610100808354040283529160200191610e85565b820191906000526020600020905b815481529060010190602001808311610e6857829003601f168201915b505050505081526020016001820160009054906101000a900473ffffffffffffffffffffffffffffffffffffffff1673ffffffffffffffffffffffffffffffffffffffff1673ffffffffffffffffffffffffffffffffffffffff16815250508152602001600560008473ffffffffffffffffffffffffffffffffffffffff1673ffffffffffffffffffffffffffffffffffffffff168152602001908152602001600020604080519081016040529081600082018054600181600116156101000203166002900480601f016020809104026020016040519081016040528092919081815260200182805460018160011615610100020316600290048015610fcc5780601f10610fa157610100808354040283529160200191610fcc565b820191906000526020600020905b815481529060010190602001808311610faf57829003601f168201915b505050505081526020016001820160009054906101000a900473ffffffffffffffffffffffffffffffffffffffff1673ffffffffffffffffffffffffffffffffffffffff1673ffffffffffffffffffffffffffffffffffffffff168152505081526020016000151581526020016000151581526020016001815250600460006003548152602001908152602001600020600082015181600001556020820151816001019080519060200190611082929190611976565b50604082015181600201556060820151816003015560808201518160040160008201518160000190805190602001906110bc929190611976565b5060208201518160010160006101000a81548173ffffffffffffffffffffffffffffffffffffffff021916908373ffffffffffffffffffffffffffffffffffffffff160217905550505060a082015181600601600082015181600001908051906020019061112b929190611976565b5060208201518160010160006101000a81548173ffffffffffffffffffffffffffffffffffffffff021916908373ffffffffffffffffffffffffffffffffffffffff160217905550505060c08201518160080160006101000a81548160ff02191690831515021790555060e08201518160080160016101000a81548160ff0219169083151502179055506101008201518160090155905050505050565b600060046000838152602001908152602001600020600201549050919050565b6060600460008381526020019081526020016000206001018054600181600116156101000203166002900480601f0160208091040260200160405190810160405280929190818152602001828054600181600116156101000203166002900480156112945780601f1061126957610100808354040283529160200191611294565b820191906000526020600020905b81548152906001019060200180831161127757829003601f168201915b50505050509050919050565b6005602052806000526040600020600091509050806000018054600181600116156101000203166002900480601f01602080910402602001604051908101604052809291908181526020018280546001816001161561010002031660029004801561134c5780601f106113215761010080835404028352916020019161134c565b820191906000526020600020905b81548152906001019060200180831161132f57829003601f168201915b5050505050908060010160009054906101000a900473ffffffffffffffffffffffffffffffffffffffff16905082565b606060006004600084815260200190815260200160002090508060060160010160009054906101000a900473ffffffffffffffffffffffffffffffffffffffff1673ffffffffffffffffffffffffffffffffffffffff163373ffffffffffffffffffffffffffffffffffffffff16141561149757806004016000018054600181600116156101000203166002900480601f01602080910402602001604051908101604052809291908181526020018280546001816001161561010002031660029004801561148b5780601f106114605761010080835404028352916020019161148b565b820191906000526020600020905b81548152906001019060200180831161146e57829003601f168201915b505050505091506115ad565b8060040160010160009054906101000a900473ffffffffffffffffffffffffffffffffffffffff1673ffffffffffffffffffffffffffffffffffffffff163373ffffffffffffffffffffffffffffffffffffffff16141561159957806006016000018054600181600116156101000203166002900480601f01602080910402602001604051908101604052809291908181526020018280546001816001161561010002031660029004801561158d5780601f106115625761010080835404028352916020019161158d565b820191906000526020600020905b81548152906001019060200180831161157057829003601f168201915b505050505091506115ad565b602060405190810160405280600081525091505b50919050565b6060600460008381526020019081526020016000206004016000018054600181600116156101000203166002900480601f0160208091040260200160405190810160405280929190818152602001828054600181600116156101000203166002900480156116625780601f1061163757610100808354040283529160200191611662565b820191906000526020600020905b81548152906001019060200180831161164557829003601f168201915b50505050509050919050565b600060046000838152602001908152602001600020600301549050919050565b60606116986119f6565b6060600080600560003373ffffffffffffffffffffffffffffffffffffffff1673ffffffffffffffffffffffffffffffffffffffff168152602001908152602001600020604080519081016040529081600082018054600181600116156101000203166002900480601f0160208091040260200160405190810160405280929190818152602001828054600181600116156101000203166002900480156117805780601f1061175557610100808354040283529160200191611780565b820191906000526020600020905b81548152906001019060200180831161176357829003601f168201915b505050505081526020016001820160009054906101000a900473ffffffffffffffffffffffffffffffffffffffff1673ffffffffffffffffffffffffffffffffffffffff1673ffffffffffffffffffffffffffffffffffffffff168152505093506003546040519080825280602002602001820160405280156118125781602001602082028038833980820191505090505b50925060009150600090505b60035481101561193f57836020015173ffffffffffffffffffffffffffffffffffffffff166004600083815260200190815260200160002060040160010160009054906101000a900473ffffffffffffffffffffffffffffffffffffffff1673ffffffffffffffffffffffffffffffffffffffff1614806119075750836020015173ffffffffffffffffffffffffffffffffffffffff166004600083815260200190815260200160002060060160010160009054906101000a900473ffffffffffffffffffffffffffffffffffffffff1673ffffffffffffffffffffffffffffffffffffffff16145b156119325780838381518110151561191b57fe5b906020019060200201818152505081806001019250505b808060010191505061181e565b8294505050505090565b60006004600083815260200190815260200160002060080160009054906101000a900460ff169050919050565b828054600181600116156101000203166002900490600052602060002090601f016020900481019282601f106119b757805160ff19168380011785556119e5565b828001600101855582156119e5579182015b828111156119e45782518255916020019190600101906119c9565b5b5090506119f29190611a26565b5090565b604080519081016040528060608152602001600073ffffffffffffffffffffffffffffffffffffffff1681525090565b611a4891905b80821115611a44576000816000905550600101611a2c565b5090565b905600a165627a7a7230582091cf508d00358a1dd64c896158d46ffd13956615e2037428ca30846abf9112640029",
  "source": "pragma solidity ^0.4.22;\r\ncontract ContractSystem {\r\n    \r\n    \r\n    event logs(string indexed value1);\r\n    event loga(address indexed value1);\r\n    event logi(uint indexed value1);\r\n    \r\n    enum State{Completed,Disputed,Ongoing,Verified}\r\n    \r\n    uint256 dummyValue;\r\n    address toCoWllet;\r\n    address fromCoWallet;\r\n    \r\n    \r\n    uint256 public constractIDCount = 0;\r\n    \r\n    struct UserContract {\r\n        uint256 id;\r\n        string terms;\r\n        uint amount;\r\n        uint256 createdOnTimestamp;\r\n        User fromParty;\r\n        User toParty;\r\n        bool fromPartyVerified;\r\n        bool toPartyVerified;\r\n        uint status;\r\n    }\r\n    \r\n    struct User {\r\n        string name;\r\n        address wallet_address;\r\n    }\r\n    \r\n\r\n    \r\n    mapping(uint => UserContract) allContracts;\r\n    \r\n    mapping(address => User) public users;\r\n    \r\n    \r\n    //given user wallet fetch UserContracts\r\n    \r\n    \r\n    \r\n    \r\n    function createUserContract(string memory _terms, uint _amount,address _toPartyAdress) public payable {\r\n        \r\n        require(msg.sender != _toPartyAdress);\r\n        \r\n        dummyValue = msg.value;\r\n        fromCoWallet = msg.sender;\r\n        toCoWllet = _toPartyAdress;\r\n        \r\n        constractIDCount++;\r\n        allContracts[constractIDCount] =  UserContract(constractIDCount,\r\n                                                     _terms,\r\n                                                     _amount,\r\n                                                     block.timestamp,\r\n                                                     users[msg.sender],\r\n                                                     users[_toPartyAdress],\r\n                                                     false,\r\n                                                     false,\r\n                                                     1);\r\n    }\r\n    \r\n    function addUser(string memory _name) public  {\r\n        users[msg.sender] = User(_name,msg.sender);\r\n    }\r\n   \r\n    function getUserContracts() public view returns(uint[] memory) {\r\n        User memory user = users[msg.sender];\r\n        uint[] memory thisUsersContracts = new uint[](constractIDCount);\r\n        uint k = 0;\r\n        for (uint i=0; i<constractIDCount; i++) {\r\n            if(allContracts[i].fromParty.wallet_address == user.wallet_address || \r\n                allContracts[i].toParty.wallet_address == user.wallet_address) {\r\n                thisUsersContracts[k]  = i;\r\n                k++;\r\n            }\r\n        }\r\n        return thisUsersContracts;\r\n    }\r\n    \r\n    \r\n    function verifyUserContract(uint _contractID) public {\r\n        UserContract storage _userContract = allContracts[_contractID];\r\n        if(msg.sender == _userContract.toParty.wallet_address) {\r\n            _userContract.toPartyVerified = true;\r\n        } else if(msg.sender == _userContract.fromParty.wallet_address) {\r\n            _userContract.fromPartyVerified = true;\r\n        }\r\n        \r\n        if(_userContract.fromPartyVerified && _userContract.toPartyVerified) {\r\n            _userContract.status = 2;\r\n        }\r\n        \r\n    }\r\n    \r\n    \r\n    modifier bothVerified(uint _contractID) {\r\n        require(allContracts[_contractID].status == 2, \"Both not verified\");\r\n        _;\r\n    }\r\n    \r\n    \r\n    function JobCompleted(uint _contractID) public {\r\n        //require(allContracts[_contractID].status == State.Verified);\r\n        UserContract storage _userContract = allContracts[_contractID];\r\n        require(_userContract.status == 2, \"Both not verified\");\r\n        require(msg.sender == _userContract.fromParty.wallet_address,\"not Address\");\r\n         _userContract.status = 3;\r\n        //address toWallet = _userContract.toParty.wallet_address;\r\n        // toWallet.transfer(msg.value);\r\n        toCoWllet.transfer(dummyValue);\r\n    }\r\n    \r\n    \r\n    \r\n    //Temp Contract\r\n    \r\n    //Contracts Done\r\n    \r\n    //Active Disputes\r\n\r\n    /***************************CONTRACT GETTER***********************/\r\n    \r\n    function getContractTerms(uint _contractID) public returns(string memory){\r\n        return allContracts[_contractID].terms;\r\n    }\r\n    function getContractAmount(uint _contractID) public returns(uint ){\r\n        return allContracts[_contractID].amount;\r\n    }\r\n    function getContractTimeStamp(uint _contractID) public returns(uint ){\r\n        return allContracts[_contractID].createdOnTimestamp;\r\n    }\r\n    function getContractToPartyName(uint _contractID) public returns(string ){\r\n        return allContracts[_contractID].toParty.name;\r\n    }\r\n    function getContractFromPartyName(uint _contractID) public returns(string  ){\r\n        return allContracts[_contractID].fromParty.name;\r\n    }\r\n    function getContractStatus(uint _contractID) public returns(uint){\r\n        return allContracts[_contractID].status; \r\n    }\r\n    function getContractFromPartyVerified(uint _contractID) public returns(bool){\r\n        return allContracts[_contractID].fromPartyVerified; \r\n    }\r\n    function getContractToPartyVerified(uint _contractID) public returns(bool){\r\n        return allContracts[_contractID].toPartyVerified; \r\n    }\r\n    function getClient(uint _contractID) public returns(string) {\r\n        \r\n        UserContract usc = allContracts[_contractID]; \r\n        if(msg.sender  == usc.toParty.wallet_address) {\r\n            return usc.fromParty.name;\r\n        } else if(msg.sender  == usc.fromParty.wallet_address) {\r\n            return usc.toParty.name;\r\n        } else return \"\";\r\n    }\r\n\r\n        \r\n\r\n}",
  "sourcePath": "C:/Users/Nisha/Documents/SPIT HACKATHON/SPIT_HACKATHON/contracts/ContractSystem.sol",
  "compiler": {
    "name": "solc",
    "version": "0.4.22+commit.4cb486ee.Emscripten.clang"
  },
  "schemaVersion": "3.0.1",
  "updatedAt": "2019-01-06T04:52:40.976Z",
  "devdoc": {
    "methods": {}
  },
  "userdoc": {
    "methods": {
      "getContractTerms(uint256)": {
        "notice": "*************************CONTRACT GETTER**********************"
      }
    }
  }
}