{
  "contractName": "ContractSystem",
  "abi": [
    {
      "constant": true,
      "inputs": [
        {
          "name": "",
          "type": "address"
        }
      ],
      "name": "balances",
      "outputs": [
        {
          "name": "",
          "type": "uint256"
        }
      ],
      "payable": false,
      "stateMutability": "view",
      "type": "function",
      "signature": "0x27e235e3"
    },
    {
      "constant": true,
      "inputs": [],
      "name": "constractIDCount",
      "outputs": [
        {
          "name": "",
          "type": "uint256"
        }
      ],
      "payable": false,
      "stateMutability": "view",
      "type": "function",
      "signature": "0x3a159930"
    },
    {
      "constant": true,
      "inputs": [
        {
          "name": "",
          "type": "address"
        }
      ],
      "name": "users",
      "outputs": [
        {
          "name": "name",
          "type": "string"
        },
        {
          "name": "wallet_address",
          "type": "address"
        }
      ],
      "payable": false,
      "stateMutability": "view",
      "type": "function",
      "signature": "0xa87430ba"
    },
    {
      "inputs": [],
      "payable": true,
      "stateMutability": "payable",
      "type": "constructor",
      "signature": "constructor"
    },
    {
      "anonymous": false,
      "inputs": [
        {
          "indexed": true,
          "name": "value1",
          "type": "string"
        }
      ],
      "name": "logs",
      "type": "event",
      "signature": "0xca85af2a38e73f0d45e6f01325ed3bba20ec72356fe173d870fd10101ab7fdc0"
    },
    {
      "anonymous": false,
      "inputs": [
        {
          "indexed": true,
          "name": "value1",
          "type": "address"
        }
      ],
      "name": "loga",
      "type": "event",
      "signature": "0x7e85af00f93b84fdce3db2685a99baf487b2ca06d4a407c0ab651217b2244874"
    },
    {
      "anonymous": false,
      "inputs": [
        {
          "indexed": true,
          "name": "value1",
          "type": "uint256"
        }
      ],
      "name": "logi",
      "type": "event",
      "signature": "0xb3220490ec0b184f378bf0e1fd2e2e595ad2ba6acd981a4357727ff0c4faa27c"
    },
    {
      "constant": false,
      "inputs": [
        {
          "name": "_terms",
          "type": "string"
        },
        {
          "name": "_amount",
          "type": "uint256"
        },
        {
          "name": "_toPartyAdress",
          "type": "address"
        }
      ],
      "name": "createUserContract",
      "outputs": [],
      "payable": true,
      "stateMutability": "payable",
      "type": "function",
      "signature": "0x5789c650"
    },
    {
      "constant": false,
      "inputs": [
        {
          "name": "_name",
          "type": "string"
        }
      ],
      "name": "addUser",
      "outputs": [],
      "payable": false,
      "stateMutability": "nonpayable",
      "type": "function",
      "signature": "0x18b8275a"
    },
    {
      "constant": true,
      "inputs": [],
      "name": "getUserContracts",
      "outputs": [
        {
          "name": "",
          "type": "uint256[]"
        }
      ],
      "payable": false,
      "stateMutability": "view",
      "type": "function",
      "signature": "0xdfc41f44"
    },
    {
      "constant": false,
      "inputs": [
        {
          "name": "_contractID",
          "type": "uint256"
        }
      ],
      "name": "verifyUserContract",
      "outputs": [],
      "payable": false,
      "stateMutability": "nonpayable",
      "type": "function",
      "signature": "0x340e2192"
    },
    {
      "constant": false,
      "inputs": [
        {
          "name": "_contractID",
          "type": "uint256"
        }
      ],
      "name": "JobCompleted",
      "outputs": [],
      "payable": true,
      "stateMutability": "payable",
      "type": "function",
      "signature": "0x02244c85"
    }
  ],
  "bytecode": "0x6080604052600080556111ef806100176000396000f3fe60806040526004361061008e576000357c0100000000000000000000000000000000000000000000000000000000900463ffffffff16806302244c851461009357806318b8275a146100c157806327e235e314610189578063340e2192146101ee5780633a159930146102295780635789c65014610254578063a87430ba14610339578063dfc41f4414610436575b600080fd5b6100bf600480360360208110156100a957600080fd5b81019080803590602001909291905050506104a2565b005b3480156100cd57600080fd5b50610187600480360360208110156100e457600080fd5b810190808035906020019064010000000081111561010157600080fd5b82018360208201111561011357600080fd5b8035906020019184600183028401116401000000008311171561013557600080fd5b91908080601f016020809104026020016040519081016040528093929190818152602001838380828437600081840152601f19601f82011690508083019250505050505050919291929050505061063a565b005b34801561019557600080fd5b506101d8600480360360208110156101ac57600080fd5b81019080803573ffffffffffffffffffffffffffffffffffffffff16906020019092919050505061070e565b6040518082815260200191505060405180910390f35b3480156101fa57600080fd5b506102276004803603602081101561021157600080fd5b8101908080359060200190929190505050610726565b005b34801561023557600080fd5b5061023e610890565b6040518082815260200191505060405180910390f35b6103376004803603606081101561026a57600080fd5b810190808035906020019064010000000081111561028757600080fd5b82018360208201111561029957600080fd5b803590602001918460018302840111640100000000831117156102bb57600080fd5b91908080601f016020809104026020016040519081016040528093929190818152602001838380828437600081840152601f19601f82011690508083019250505050505050919291929080359060200190929190803573ffffffffffffffffffffffffffffffffffffffff169060200190929190505050610896565b005b34801561034557600080fd5b506103886004803603602081101561035c57600080fd5b81019080803573ffffffffffffffffffffffffffffffffffffffff169060200190929190505050610d58565b60405180806020018373ffffffffffffffffffffffffffffffffffffffff1673ffffffffffffffffffffffffffffffffffffffff168152602001828103825284818151815260200191508051906020019080838360005b838110156103fa5780820151818401526020810190506103df565b50505050905090810190601f1680156104275780820380516001836020036101000a031916815260200191505b50935050505060405180910390f35b34801561044257600080fd5b5061044b610e34565b6040518080602001828103825283818151815260200191508051906020019060200280838360005b8381101561048e578082015181840152602081019050610473565b505050509050019250505060405180910390f35b60006001600083815260200190815260200160002090508060040160010160009054906101000a900473ffffffffffffffffffffffffffffffffffffffff1673ffffffffffffffffffffffffffffffffffffffff163373ffffffffffffffffffffffffffffffffffffffff1614151561051a57600080fd5b8060080160029054906101000a900460ff16600381111561053757fe5b60038081111561054357fe5b14151561054f57600080fd5b60008160080160026101000a81548160ff0219169083600381111561057057fe5b0217905550600360003373ffffffffffffffffffffffffffffffffffffffff1673ffffffffffffffffffffffffffffffffffffffff168152602001908152602001600020600081548092919060010191905055508060060160010160009054906101000a900473ffffffffffffffffffffffffffffffffffffffff1673ffffffffffffffffffffffffffffffffffffffff166108fc82600201549081150290604051600060405180830381858888f19350505050158015610635573d6000803e3d6000fd5b505050565b60408051908101604052808281526020013373ffffffffffffffffffffffffffffffffffffffff16815250600260003373ffffffffffffffffffffffffffffffffffffffff1673ffffffffffffffffffffffffffffffffffffffff16815260200190815260200160002060008201518160000190805190602001906106c09291906110ee565b5060208201518160010160006101000a81548173ffffffffffffffffffffffffffffffffffffffff021916908373ffffffffffffffffffffffffffffffffffffffff16021790555090505050565b60036020528060005260406000206000915090505481565b60006001600083815260200190815260200160002090508060060160010160009054906101000a900473ffffffffffffffffffffffffffffffffffffffff1673ffffffffffffffffffffffffffffffffffffffff163373ffffffffffffffffffffffffffffffffffffffff1614156107ba5760018160080160016101000a81548160ff021916908315150217905550610834565b8060040160010160009054906101000a900473ffffffffffffffffffffffffffffffffffffffff1673ffffffffffffffffffffffffffffffffffffffff163373ffffffffffffffffffffffffffffffffffffffff1614156108335760018160080160006101000a81548160ff0219169083151502179055505b5b8060080160009054906101000a900460ff16801561086057508060080160019054906101000a900460ff165b1561088c5760038160080160026101000a81548160ff0219169083600381111561088657fe5b02179055505b5050565b60005481565b8073ffffffffffffffffffffffffffffffffffffffff163373ffffffffffffffffffffffffffffffffffffffff16141515156108d157600080fd5b6000808154809291906001019190505550610120604051908101604052806000548152602001848152602001838152602001428152602001600260003373ffffffffffffffffffffffffffffffffffffffff1673ffffffffffffffffffffffffffffffffffffffff168152602001908152602001600020604080519081016040529081600082018054600181600116156101000203166002900480601f0160208091040260200160405190810160405280929190818152602001828054600181600116156101000203166002900480156109ec5780601f106109c1576101008083540402835291602001916109ec565b820191906000526020600020905b8154815290600101906020018083116109cf57829003601f168201915b505050505081526020016001820160009054906101000a900473ffffffffffffffffffffffffffffffffffffffff1673ffffffffffffffffffffffffffffffffffffffff1673ffffffffffffffffffffffffffffffffffffffff16815250508152602001600260008473ffffffffffffffffffffffffffffffffffffffff1673ffffffffffffffffffffffffffffffffffffffff168152602001908152602001600020604080519081016040529081600082018054600181600116156101000203166002900480601f016020809104026020016040519081016040528092919081815260200182805460018160011615610100020316600290048015610b335780601f10610b0857610100808354040283529160200191610b33565b820191906000526020600020905b815481529060010190602001808311610b1657829003601f168201915b505050505081526020016001820160009054906101000a900473ffffffffffffffffffffffffffffffffffffffff1673ffffffffffffffffffffffffffffffffffffffff1673ffffffffffffffffffffffffffffffffffffffff1681525050815260200160001515815260200160001515815260200160026003811115610bb657fe5b8152506001600080548152602001908152602001600020600082015181600001556020820151816001019080519060200190610bf39291906110ee565b5060408201518160020155606082015181600301556080820151816004016000820151816000019080519060200190610c2d9291906110ee565b5060208201518160010160006101000a81548173ffffffffffffffffffffffffffffffffffffffff021916908373ffffffffffffffffffffffffffffffffffffffff160217905550505060a0820151816006016000820151816000019080519060200190610c9c9291906110ee565b5060208201518160010160006101000a81548173ffffffffffffffffffffffffffffffffffffffff021916908373ffffffffffffffffffffffffffffffffffffffff160217905550505060c08201518160080160006101000a81548160ff02191690831515021790555060e08201518160080160016101000a81548160ff0219169083151502179055506101008201518160080160026101000a81548160ff02191690836003811115610d4b57fe5b0217905550905050505050565b6002602052806000526040600020600091509050806000018054600181600116156101000203166002900480601f016020809104026020016040519081016040528092919081815260200182805460018160011615610100020316600290048015610e045780601f10610dd957610100808354040283529160200191610e04565b820191906000526020600020905b815481529060010190602001808311610de757829003601f168201915b5050505050908060010160009054906101000a900473ffffffffffffffffffffffffffffffffffffffff16905082565b6060610e3e61116e565b600260003373ffffffffffffffffffffffffffffffffffffffff1673ffffffffffffffffffffffffffffffffffffffff168152602001908152602001600020604080519081016040529081600082018054600181600116156101000203166002900480601f016020809104026020016040519081016040528092919081815260200182805460018160011615610100020316600290048015610f215780601f10610ef657610100808354040283529160200191610f21565b820191906000526020600020905b815481529060010190602001808311610f0457829003601f168201915b505050505081526020016001820160009054906101000a900473ffffffffffffffffffffffffffffffffffffffff1673ffffffffffffffffffffffffffffffffffffffff1673ffffffffffffffffffffffffffffffffffffffff168152505090506060600054604051908082528060200260200182016040528015610fb55781602001602082028038833980820191505090505b509050600080905060008090505b6000548110156110e457836020015173ffffffffffffffffffffffffffffffffffffffff166001600083815260200190815260200160002060040160010160009054906101000a900473ffffffffffffffffffffffffffffffffffffffff1673ffffffffffffffffffffffffffffffffffffffff1614806110ac5750836020015173ffffffffffffffffffffffffffffffffffffffff166001600083815260200190815260200160002060060160010160009054906101000a900473ffffffffffffffffffffffffffffffffffffffff1673ffffffffffffffffffffffffffffffffffffffff16145b156110d7578083838151811015156110c057fe5b906020019060200201818152505081806001019250505b8080600101915050610fc3565b5081935050505090565b828054600181600116156101000203166002900490600052602060002090601f016020900481019282601f1061112f57805160ff191683800117855561115d565b8280016001018555821561115d579182015b8281111561115c578251825591602001919060010190611141565b5b50905061116a919061119e565b5090565b604080519081016040528060608152602001600073ffffffffffffffffffffffffffffffffffffffff1681525090565b6111c091905b808211156111bc5760008160009055506001016111a4565b5090565b9056fea165627a7a72305820a7388d153bf9ef7fb906cb2545553fb0bdec166ad87f1aa5420cb4a6dd63d1dc0029",
  "source": "pragma solidity ^0.5.0;\r\ncontract ContractSystem {\r\n    \r\n    \r\n    event logs(string indexed value1);\r\n    event loga(address indexed value1);\r\n    event logi(uint indexed value1);\r\n    \r\n    \r\n   constructor() public payable {\r\n       \r\n   }\r\n    \r\n    \r\n    \r\n    enum State{Completed,Disputed,Ongoing,Verified}\r\n    \r\n    uint256 public constractIDCount = 0;\r\n    struct UserContract {\r\n        uint256 id;\r\n        string terms;\r\n        uint amount;\r\n        uint256 createdOnTimestamp;\r\n        User fromParty;\r\n        User toParty;\r\n        bool fromPartyVerified;\r\n        bool toPartyVerified;\r\n        State status;\r\n    }\r\n    \r\n    struct User {\r\n        string name;\r\n        address payable wallet_address;\r\n    }\r\n    \r\n\r\n    \r\n    mapping(uint => UserContract) allContracts;\r\n    \r\n    mapping(address => User) public users;\r\n    \r\n    mapping(address => uint256) public balances;\r\n    \r\n    \r\n    //given user wallet fetch UserContracts\r\n    \r\n    \r\n    \r\n    \r\n    function createUserContract(string memory _terms, uint _amount,address payable  _toPartyAdress) public payable {\r\n        \r\n        require(msg.sender != _toPartyAdress);\r\n        \r\n        constractIDCount++;\r\n        allContracts[constractIDCount] =  UserContract(constractIDCount,\r\n                                                     _terms,\r\n                                                     _amount,\r\n                                                     block.timestamp,\r\n                                                     users[msg.sender],\r\n                                                     users[_toPartyAdress],\r\n                                                     false,\r\n                                                     false,\r\n                                                     State.Ongoing);\r\n    }\r\n    \r\n    function addUser(string memory _name) public  {\r\n        users[msg.sender] = User(_name,msg.sender);\r\n    }\r\n   \r\n    function getUserContracts() public view returns(uint[] memory) {\r\n        User memory user = users[msg.sender];\r\n        uint[] memory thisUsersContracts = new uint[](constractIDCount);\r\n        uint k = 0;\r\n        for (uint i=0; i<constractIDCount; i++) {\r\n            if(allContracts[i].fromParty.wallet_address == user.wallet_address || \r\n                allContracts[i].toParty.wallet_address == user.wallet_address) {\r\n                thisUsersContracts[k]  = i;\r\n                k++;\r\n            }\r\n            \r\n        }\r\n        return thisUsersContracts;\r\n    }\r\n    \r\n    \r\n    function verifyUserContract(uint _contractID) public {\r\n        UserContract storage _userContract = allContracts[_contractID];\r\n        if(msg.sender == _userContract.toParty.wallet_address) {\r\n            _userContract.toPartyVerified = true;\r\n        } else if(msg.sender == _userContract.fromParty.wallet_address) {\r\n            _userContract.fromPartyVerified = true;\r\n        }\r\n        \r\n        if(_userContract.fromPartyVerified && _userContract.toPartyVerified) {\r\n            _userContract.status = State.Verified;\r\n        }\r\n        \r\n    }\r\n    \r\n    \r\n    \r\n    \r\n    \r\n    function JobCompleted(uint _contractID) public payable{\r\n        UserContract storage _userContract = allContracts[_contractID];\r\n        require(msg.sender == _userContract.fromParty.wallet_address);\r\n        require(State.Verified == _userContract.status);\r\n        _userContract.status = State.Completed;\r\n        balances[msg.sender]++;\r\n        \r\n        _userContract.toParty.wallet_address.transfer(_userContract.amount);\r\n        \r\n    }\r\n    \r\n    \r\n    \r\n    //Temp Contract\r\n    \r\n    //Contracts Done\r\n    \r\n    //Active Disputes\r\n\r\n}",
  "sourcePath": "C:/Users/Mohan/Desktop/hackathon/SPIT_HACKATHON/contracts/ContractSystem.sol",
  "compiler": {
    "name": "solc",
    "version": "0.5.0+commit.1d4f565a.Emscripten.clang"
  },
  "schemaVersion": "3.0.1",
  "updatedAt": "2019-01-05T17:04:24.630Z",
  "devdoc": {
    "methods": {}
  },
  "userdoc": {
    "methods": {}
  }
}